{
  "_format": "hh-sol-artifact-1",
  "contractName": "PayRouter",
  "sourceName": "contracts/payment.sol",
  "abi": [
    {
      "anonymous": false,
      "inputs": [
        {
          "indexed": false,
          "internalType": "uint256",
          "name": "orderId",
          "type": "uint256"
        },
        {
          "indexed": true,
          "internalType": "address",
          "name": "buyer",
          "type": "address"
        },
        {
          "indexed": true,
          "internalType": "address",
          "name": "seller",
          "type": "address"
        },
        {
          "indexed": false,
          "internalType": "uint256",
          "name": "amount",
          "type": "uint256"
        }
      ],
      "name": "ProductPaid",
      "type": "event"
    },
    {
      "inputs": [
        {
          "internalType": "uint256",
          "name": "orderId",
          "type": "uint256"
        },
        {
          "internalType": "address payable",
          "name": "seller",
          "type": "address"
        }
      ],
      "name": "payForProduct",
      "outputs": [],
      "stateMutability": "payable",
      "type": "function"
    }
  ],
  "bytecode": "0x6080604052348015600f57600080fd5b506104eb8061001f6000396000f3fe60806040526004361061001e5760003560e01c80630a5b268014610023575b600080fd5b61003d600480360381019061003891906102a2565b61003f565b005b60003411610082576040517f08c379a00000000000000000000000000000000000000000000000000000000081526004016100799061033f565b60405180910390fd5b600073ffffffffffffffffffffffffffffffffffffffff168173ffffffffffffffffffffffffffffffffffffffff16036100f1576040517f08c379a00000000000000000000000000000000000000000000000000000000081526004016100e8906103ab565b60405180910390fd5b60008173ffffffffffffffffffffffffffffffffffffffff1634604051610117906103fc565b60006040518083038185875af1925050503d8060008114610154576040519150601f19603f3d011682016040523d82523d6000602084013e610159565b606091505b505090508061019d576040517f08c379a00000000000000000000000000000000000000000000000000000000081526004016101949061045d565b60405180910390fd5b8173ffffffffffffffffffffffffffffffffffffffff163373ffffffffffffffffffffffffffffffffffffffff167f43b1dd4f064e6a1ec005a4a29ea3bd75129fd5b72f50304d1c793269b31b611085346040516101fc92919061048c565b60405180910390a3505050565b600080fd5b6000819050919050565b6102218161020e565b811461022c57600080fd5b50565b60008135905061023e81610218565b92915050565b600073ffffffffffffffffffffffffffffffffffffffff82169050919050565b600061026f82610244565b9050919050565b61027f81610264565b811461028a57600080fd5b50565b60008135905061029c81610276565b92915050565b600080604083850312156102b9576102b8610209565b5b60006102c78582860161022f565b92505060206102d88582860161028d565b9150509250929050565b600082825260208201905092915050565b7f4e6f7468696e6720746f20706179000000000000000000000000000000000000600082015250565b6000610329600e836102e2565b9150610334826102f3565b602082019050919050565b600060208201905081810360008301526103588161031c565b9050919050565b7f496e76616c69642073656c6c6572206164647265737300000000000000000000600082015250565b60006103956016836102e2565b91506103a08261035f565b602082019050919050565b600060208201905081810360008301526103c481610388565b9050919050565b600081905092915050565b50565b60006103e66000836103cb565b91506103f1826103d6565b600082019050919050565b6000610407826103d9565b9150819050919050565b7f4661696c656420746f207061792073656c6c6572000000000000000000000000600082015250565b60006104476014836102e2565b915061045282610411565b602082019050919050565b600060208201905081810360008301526104768161043a565b9050919050565b6104868161020e565b82525050565b60006040820190506104a1600083018561047d565b6104ae602083018461047d565b939250505056fea264697066735822122009adba2628a6f21c4bc3fb4ea0afc5f48ce67bf78db3faed133d34d275a2263764736f6c634300081c0033",
  "linkReferences": {},
  "deployedLinkReferences": {}
}